{
  "abi": [
    {
      "inputs": [],
      "stateMutability": "nonpayable",
      "type": "constructor"
    },
    {
      "inputs": [],
      "name": "checkContractBal",
      "outputs": [
        {
          "internalType": "uint256",
          "name": "",
          "type": "uint256"
        }
      ],
      "stateMutability": "view",
      "type": "function"
    },
    {
      "inputs": [
        {
          "internalType": "uint256",
          "name": "",
          "type": "uint256"
        }
      ],
      "name": "left",
      "outputs": [
        {
          "internalType": "uint256",
          "name": "",
          "type": "uint256"
        }
      ],
      "stateMutability": "view",
      "type": "function"
    },
    {
      "inputs": [],
      "name": "playTime",
      "outputs": [
        {
          "internalType": "uint256",
          "name": "",
          "type": "uint256"
        }
      ],
      "stateMutability": "view",
      "type": "function"
    },
    {
      "inputs": [],
      "name": "pullLeft",
      "outputs": [],
      "stateMutability": "payable",
      "type": "function"
    },
    {
      "inputs": [],
      "name": "pullRight",
      "outputs": [],
      "stateMutability": "payable",
      "type": "function"
    },
    {
      "inputs": [],
      "name": "reset",
      "outputs": [],
      "stateMutability": "nonpayable",
      "type": "function"
    },
    {
      "inputs": [
        {
          "internalType": "uint256",
          "name": "",
          "type": "uint256"
        }
      ],
      "name": "right",
      "outputs": [
        {
          "internalType": "uint256",
          "name": "",
          "type": "uint256"
        }
      ],
      "stateMutability": "view",
      "type": "function"
    },
    {
      "inputs": [
        {
          "internalType": "uint256",
          "name": "",
          "type": "uint256"
        }
      ],
      "name": "score",
      "outputs": [
        {
          "internalType": "int256",
          "name": "",
          "type": "int256"
        }
      ],
      "stateMutability": "view",
      "type": "function"
    },
    {
      "inputs": [],
      "name": "version",
      "outputs": [
        {
          "internalType": "uint256",
          "name": "",
          "type": "uint256"
        }
      ],
      "stateMutability": "view",
      "type": "function"
    },
    {
      "inputs": [
        {
          "internalType": "uint256",
          "name": "_version",
          "type": "uint256"
        }
      ],
      "name": "winning",
      "outputs": [
        {
          "internalType": "int256",
          "name": "",
          "type": "int256"
        }
      ],
      "stateMutability": "view",
      "type": "function"
    },
    {
      "inputs": [
        {
          "internalType": "uint256",
          "name": "_version",
          "type": "uint256"
        }
      ],
      "name": "withdraw",
      "outputs": [
        {
          "internalType": "bool",
          "name": "",
          "type": "bool"
        }
      ],
      "stateMutability": "nonpayable",
      "type": "function"
    },
    {
      "inputs": [
        {
          "internalType": "uint256",
          "name": "",
          "type": "uint256"
        },
        {
          "internalType": "address",
          "name": "",
          "type": "address"
        }
      ],
      "name": "yourPosition",
      "outputs": [
        {
          "internalType": "int256",
          "name": "",
          "type": "int256"
        }
      ],
      "stateMutability": "view",
      "type": "function"
    }
  ],
  "bytecode": "608060405234801561001057600080fd5b506000600281905562278d009055600180546001600160a01b031916331790556107a38061003f6000396000f3fe6080604052600436106100a75760003560e01c8063c06cee0b11610064578063c06cee0b14610188578063cc62f61714610192578063d1730f1f146101b2578063d826f88f146101df578063dd4081c6146101f4578063deee916e1461022c57600080fd5b80631bb95617146100ac5780632d5675e4146100ec5780632e1a7d4d146100ff57806331ebe9841461012f57806354fd4d5014610145578063ad5f32c71461015b575b600080fd5b3480156100b857600080fd5b506100d96100c7366004610552565b60056020526000908152604090205481565b6040519081526020015b60405180910390f35b3480156100f857600080fd5b50476100d9565b34801561010b57600080fd5b5061011f61011a366004610552565b610234565b60405190151581526020016100e3565b34801561013b57600080fd5b506100d960005481565b34801561015157600080fd5b506100d960025481565b34801561016757600080fd5b506100d9610176366004610552565b60066020526000908152604090205481565b6101906103a9565b005b34801561019e57600080fd5b506100d96101ad366004610552565b610438565b3480156101be57600080fd5b506100d96101cd366004610552565b60046020526000908152604090205481565b3480156101eb57600080fd5b5061019061047c565b34801561020057600080fd5b506100d961020f36600461056b565b600360209081526000928352604080842090915290825290205481565b6101906104aa565b60008181526004602052604081205481121561032d576000828152600660209081526040808320546003835281842033855290925282205461027590610532565b60008581526005602052604090205461028e91906105bd565b61029891906105dc565b60008481526003602090815260408083203384529091529020546102bb90610532565b6102c591906105fe565b9050801561032457600083815260036020908152604080832033808552925280832083905551909183156108fc02918491818181858888f193505050506103245760009283526003602090815260408085203386529091528320555090565b50600192915050565b6000828152600460205260408120541215610386576000828152600560209081526040808320546003835281842033855290925282205461036d90610532565b60008581526006602052604090205461028e91906105bd565b60008281526003602090815260408083203384529091528120546102c590610532565b34670de0b6b3a7640000146103bd57600080fd5b6002546000908152600360209081526040808320338452909152812080543492906103e9908490610616565b9091555050600254600090815260046020526040812080549161040b83610657565b9091555050600254600090815260066020526040812080543492906104319084906105fe565b9091555050565b60008181526004602052604081205481121561045657506001919050565b60008281526004602052604081205412156104745750600019919050565b506000919050565b6001546001600160a01b0316331461049357600080fd5b600280549060006104a383610677565b9190505550565b34670de0b6b3a7640000146104be57600080fd5b6002546000908152600360209081526040808320338452909152812080543492906104ea90849061068b565b9091555050600254600090815260046020526040812080549161050c836106ca565b9091555050600254600090815260056020526040812080543492906104319084906105fe565b60008082121561054e57610548826000196106e8565b92915050565b5090565b60006020828403121561056457600080fd5b5035919050565b6000806040838503121561057e57600080fd5b8235915060208301356001600160a01b038116811461059c57600080fd5b809150509250929050565b634e487b7160e01b600052601160045260246000fd5b60008160001904831182151516156105d7576105d76105a7565b500290565b6000826105f957634e487b7160e01b600052601260045260246000fd5b500490565b60008219821115610611576106116105a7565b500190565b600080821280156001600160ff1b0384900385131615610638576106386105a7565b600160ff1b8390038412811615610651576106516105a7565b50500190565b60006001600160ff1b03821415610670576106706105a7565b5060010190565b6000600019821415610670576106706105a7565b60008083128015600160ff1b8501841216156106a9576106a96105a7565b6001600160ff1b03840183138116156106c4576106c46105a7565b50500390565b6000600160ff1b8214156106e0576106e06105a7565b506000190190565b60006001600160ff1b038184138284138082168684048611161561070e5761070e6105a7565b600160ff1b600087128281168783058912161561072d5761072d6105a7565b60008712925087820587128484161615610749576107496105a7565b8785058712818416161561075f5761075f6105a7565b50505092909302939250505056fea264697066735822122054334252de618d9b9a4dc13799ac4bbc4529777ad9afcc823c5d7271eabc666f64736f6c63430008090033",
  "bytecodeSha1": "3f5772d7236065678ba1f0b0f17268e5fccdb0f4",
  "compiler": {
    "evm_version": "istanbul",
    "optimizer": {
      "enabled": true,
      "runs": 200
    },
    "version": "0.8.9+commit.e5eed63a"
  },
  "contractName": "TugofWar",
  "language": "Solidity",
  "natspec": {
    "kind": "dev",
    "methods": {},
    "version": 1
  },
  "opcodes": "PUSH1 0x80 PUSH1 0x40 MSTORE PUSH1 0x4 CALLDATASIZE LT PUSH2 0xA7 JUMPI PUSH1 0x0 CALLDATALOAD PUSH1 0xE0 SHR DUP1 PUSH4 0xC06CEE0B GT PUSH2 0x64 JUMPI DUP1 PUSH4 0xC06CEE0B EQ PUSH2 0x188 JUMPI DUP1 PUSH4 0xCC62F617 EQ PUSH2 0x192 JUMPI DUP1 PUSH4 0xD1730F1F EQ PUSH2 0x1B2 JUMPI DUP1 PUSH4 0xD826F88F EQ PUSH2 0x1DF JUMPI DUP1 PUSH4 0xDD4081C6 EQ PUSH2 0x1F4 JUMPI DUP1 PUSH4 0xDEEE916E EQ PUSH2 0x22C JUMPI PUSH1 0x0 DUP1 REVERT JUMPDEST DUP1 PUSH4 0x1BB95617 EQ PUSH2 0xAC JUMPI DUP1 PUSH4 0x2D5675E4 EQ PUSH2 0xEC JUMPI DUP1 PUSH4 0x2E1A7D4D EQ PUSH2 0xFF JUMPI DUP1 PUSH4 0x31EBE984 EQ PUSH2 0x12F JUMPI DUP1 PUSH4 0x54FD4D50 EQ PUSH2 0x145 JUMPI DUP1 PUSH4 0xAD5F32C7 EQ PUSH2 0x15B JUMPI JUMPDEST PUSH1 0x0 DUP1 REVERT JUMPDEST CALLVALUE DUP1 ISZERO PUSH2 0xB8 JUMPI PUSH1 0x0 DUP1 REVERT JUMPDEST POP PUSH2 0xD9 PUSH2 0xC7 CALLDATASIZE PUSH1 0x4 PUSH2 0x552 JUMP JUMPDEST PUSH1 0x5 PUSH1 0x20 MSTORE PUSH1 0x0 SWAP1 DUP2 MSTORE PUSH1 0x40 SWAP1 KECCAK256 SLOAD DUP2 JUMP JUMPDEST PUSH1 0x40 MLOAD SWAP1 DUP2 MSTORE PUSH1 0x20 ADD JUMPDEST PUSH1 0x40 MLOAD DUP1 SWAP2 SUB SWAP1 RETURN JUMPDEST CALLVALUE DUP1 ISZERO PUSH2 0xF8 JUMPI PUSH1 0x0 DUP1 REVERT JUMPDEST POP SELFBALANCE PUSH2 0xD9 JUMP JUMPDEST CALLVALUE DUP1 ISZERO PUSH2 0x10B JUMPI PUSH1 0x0 DUP1 REVERT JUMPDEST POP PUSH2 0x11F PUSH2 0x11A CALLDATASIZE PUSH1 0x4 PUSH2 0x552 JUMP JUMPDEST PUSH2 0x234 JUMP JUMPDEST PUSH1 0x40 MLOAD SWAP1 ISZERO ISZERO DUP2 MSTORE PUSH1 0x20 ADD PUSH2 0xE3 JUMP JUMPDEST CALLVALUE DUP1 ISZERO PUSH2 0x13B JUMPI PUSH1 0x0 DUP1 REVERT JUMPDEST POP PUSH2 0xD9 PUSH1 0x0 SLOAD DUP2 JUMP JUMPDEST CALLVALUE DUP1 ISZERO PUSH2 0x151 JUMPI PUSH1 0x0 DUP1 REVERT JUMPDEST POP PUSH2 0xD9 PUSH1 0x2 SLOAD DUP2 JUMP JUMPDEST CALLVALUE DUP1 ISZERO PUSH2 0x167 JUMPI PUSH1 0x0 DUP1 REVERT JUMPDEST POP PUSH2 0xD9 PUSH2 0x176 CALLDATASIZE PUSH1 0x4 PUSH2 0x552 JUMP JUMPDEST PUSH1 0x6 PUSH1 0x20 MSTORE PUSH1 0x0 SWAP1 DUP2 MSTORE PUSH1 0x40 SWAP1 KECCAK256 SLOAD DUP2 JUMP JUMPDEST PUSH2 0x190 PUSH2 0x3A9 JUMP JUMPDEST STOP JUMPDEST CALLVALUE DUP1 ISZERO PUSH2 0x19E JUMPI PUSH1 0x0 DUP1 REVERT JUMPDEST POP PUSH2 0xD9 PUSH2 0x1AD CALLDATASIZE PUSH1 0x4 PUSH2 0x552 JUMP JUMPDEST PUSH2 0x438 JUMP JUMPDEST CALLVALUE DUP1 ISZERO PUSH2 0x1BE JUMPI PUSH1 0x0 DUP1 REVERT JUMPDEST POP PUSH2 0xD9 PUSH2 0x1CD CALLDATASIZE PUSH1 0x4 PUSH2 0x552 JUMP JUMPDEST PUSH1 0x4 PUSH1 0x20 MSTORE PUSH1 0x0 SWAP1 DUP2 MSTORE PUSH1 0x40 SWAP1 KECCAK256 SLOAD DUP2 JUMP JUMPDEST CALLVALUE DUP1 ISZERO PUSH2 0x1EB JUMPI PUSH1 0x0 DUP1 REVERT JUMPDEST POP PUSH2 0x190 PUSH2 0x47C JUMP JUMPDEST CALLVALUE DUP1 ISZERO PUSH2 0x200 JUMPI PUSH1 0x0 DUP1 REVERT JUMPDEST POP PUSH2 0xD9 PUSH2 0x20F CALLDATASIZE PUSH1 0x4 PUSH2 0x56B JUMP JUMPDEST PUSH1 0x3 PUSH1 0x20 SWAP1 DUP2 MSTORE PUSH1 0x0 SWAP3 DUP4 MSTORE PUSH1 0x40 DUP1 DUP5 KECCAK256 SWAP1 SWAP2 MSTORE SWAP1 DUP3 MSTORE SWAP1 KECCAK256 SLOAD DUP2 JUMP JUMPDEST PUSH2 0x190 PUSH2 0x4AA JUMP JUMPDEST PUSH1 0x0 DUP2 DUP2 MSTORE PUSH1 0x4 PUSH1 0x20 MSTORE PUSH1 0x40 DUP2 KECCAK256 SLOAD DUP2 SLT ISZERO PUSH2 0x32D JUMPI PUSH1 0x0 DUP3 DUP2 MSTORE PUSH1 0x6 PUSH1 0x20 SWAP1 DUP2 MSTORE PUSH1 0x40 DUP1 DUP4 KECCAK256 SLOAD PUSH1 0x3 DUP4 MSTORE DUP2 DUP5 KECCAK256 CALLER DUP6 MSTORE SWAP1 SWAP3 MSTORE DUP3 KECCAK256 SLOAD PUSH2 0x275 SWAP1 PUSH2 0x532 JUMP JUMPDEST PUSH1 0x0 DUP6 DUP2 MSTORE PUSH1 0x5 PUSH1 0x20 MSTORE PUSH1 0x40 SWAP1 KECCAK256 SLOAD PUSH2 0x28E SWAP2 SWAP1 PUSH2 0x5BD JUMP JUMPDEST PUSH2 0x298 SWAP2 SWAP1 PUSH2 0x5DC JUMP JUMPDEST PUSH1 0x0 DUP5 DUP2 MSTORE PUSH1 0x3 PUSH1 0x20 SWAP1 DUP2 MSTORE PUSH1 0x40 DUP1 DUP4 KECCAK256 CALLER DUP5 MSTORE SWAP1 SWAP2 MSTORE SWAP1 KECCAK256 SLOAD PUSH2 0x2BB SWAP1 PUSH2 0x532 JUMP JUMPDEST PUSH2 0x2C5 SWAP2 SWAP1 PUSH2 0x5FE JUMP JUMPDEST SWAP1 POP DUP1 ISZERO PUSH2 0x324 JUMPI PUSH1 0x0 DUP4 DUP2 MSTORE PUSH1 0x3 PUSH1 0x20 SWAP1 DUP2 MSTORE PUSH1 0x40 DUP1 DUP4 KECCAK256 CALLER DUP1 DUP6 MSTORE SWAP3 MSTORE DUP1 DUP4 KECCAK256 DUP4 SWAP1 SSTORE MLOAD SWAP1 SWAP2 DUP4 ISZERO PUSH2 0x8FC MUL SWAP2 DUP5 SWAP2 DUP2 DUP2 DUP2 DUP6 DUP9 DUP9 CALL SWAP4 POP POP POP POP PUSH2 0x324 JUMPI PUSH1 0x0 SWAP3 DUP4 MSTORE PUSH1 0x3 PUSH1 0x20 SWAP1 DUP2 MSTORE PUSH1 0x40 DUP1 DUP6 KECCAK256 CALLER DUP7 MSTORE SWAP1 SWAP2 MSTORE DUP4 KECCAK256 SSTORE POP SWAP1 JUMP JUMPDEST POP PUSH1 0x1 SWAP3 SWAP2 POP POP JUMP JUMPDEST PUSH1 0x0 DUP3 DUP2 MSTORE PUSH1 0x4 PUSH1 0x20 MSTORE PUSH1 0x40 DUP2 KECCAK256 SLOAD SLT ISZERO PUSH2 0x386 JUMPI PUSH1 0x0 DUP3 DUP2 MSTORE PUSH1 0x5 PUSH1 0x20 SWAP1 DUP2 MSTORE PUSH1 0x40 DUP1 DUP4 KECCAK256 SLOAD PUSH1 0x3 DUP4 MSTORE DUP2 DUP5 KECCAK256 CALLER DUP6 MSTORE SWAP1 SWAP3 MSTORE DUP3 KECCAK256 SLOAD PUSH2 0x36D SWAP1 PUSH2 0x532 JUMP JUMPDEST PUSH1 0x0 DUP6 DUP2 MSTORE PUSH1 0x6 PUSH1 0x20 MSTORE PUSH1 0x40 SWAP1 KECCAK256 SLOAD PUSH2 0x28E SWAP2 SWAP1 PUSH2 0x5BD JUMP JUMPDEST PUSH1 0x0 DUP3 DUP2 MSTORE PUSH1 0x3 PUSH1 0x20 SWAP1 DUP2 MSTORE PUSH1 0x40 DUP1 DUP4 KECCAK256 CALLER DUP5 MSTORE SWAP1 SWAP2 MSTORE DUP2 KECCAK256 SLOAD PUSH2 0x2C5 SWAP1 PUSH2 0x532 JUMP JUMPDEST CALLVALUE PUSH8 0xDE0B6B3A7640000 EQ PUSH2 0x3BD JUMPI PUSH1 0x0 DUP1 REVERT JUMPDEST PUSH1 0x2 SLOAD PUSH1 0x0 SWAP1 DUP2 MSTORE PUSH1 0x3 PUSH1 0x20 SWAP1 DUP2 MSTORE PUSH1 0x40 DUP1 DUP4 KECCAK256 CALLER DUP5 MSTORE SWAP1 SWAP2 MSTORE DUP2 KECCAK256 DUP1 SLOAD CALLVALUE SWAP3 SWAP1 PUSH2 0x3E9 SWAP1 DUP5 SWAP1 PUSH2 0x616 JUMP JUMPDEST SWAP1 SWAP2 SSTORE POP POP PUSH1 0x2 SLOAD PUSH1 0x0 SWAP1 DUP2 MSTORE PUSH1 0x4 PUSH1 0x20 MSTORE PUSH1 0x40 DUP2 KECCAK256 DUP1 SLOAD SWAP2 PUSH2 0x40B DUP4 PUSH2 0x657 JUMP JUMPDEST SWAP1 SWAP2 SSTORE POP POP PUSH1 0x2 SLOAD PUSH1 0x0 SWAP1 DUP2 MSTORE PUSH1 0x6 PUSH1 0x20 MSTORE PUSH1 0x40 DUP2 KECCAK256 DUP1 SLOAD CALLVALUE SWAP3 SWAP1 PUSH2 0x431 SWAP1 DUP5 SWAP1 PUSH2 0x5FE JUMP JUMPDEST SWAP1 SWAP2 SSTORE POP POP JUMP JUMPDEST PUSH1 0x0 DUP2 DUP2 MSTORE PUSH1 0x4 PUSH1 0x20 MSTORE PUSH1 0x40 DUP2 KECCAK256 SLOAD DUP2 SLT ISZERO PUSH2 0x456 JUMPI POP PUSH1 0x1 SWAP2 SWAP1 POP JUMP JUMPDEST PUSH1 0x0 DUP3 DUP2 MSTORE PUSH1 0x4 PUSH1 0x20 MSTORE PUSH1 0x40 DUP2 KECCAK256 SLOAD SLT ISZERO PUSH2 0x474 JUMPI POP PUSH1 0x0 NOT SWAP2 SWAP1 POP JUMP JUMPDEST POP PUSH1 0x0 SWAP2 SWAP1 POP JUMP JUMPDEST PUSH1 0x1 SLOAD PUSH1 0x1 PUSH1 0x1 PUSH1 0xA0 SHL SUB AND CALLER EQ PUSH2 0x493 JUMPI PUSH1 0x0 DUP1 REVERT JUMPDEST PUSH1 0x2 DUP1 SLOAD SWAP1 PUSH1 0x0 PUSH2 0x4A3 DUP4 PUSH2 0x677 JUMP JUMPDEST SWAP2 SWAP1 POP SSTORE POP JUMP JUMPDEST CALLVALUE PUSH8 0xDE0B6B3A7640000 EQ PUSH2 0x4BE JUMPI PUSH1 0x0 DUP1 REVERT JUMPDEST PUSH1 0x2 SLOAD PUSH1 0x0 SWAP1 DUP2 MSTORE PUSH1 0x3 PUSH1 0x20 SWAP1 DUP2 MSTORE PUSH1 0x40 DUP1 DUP4 KECCAK256 CALLER DUP5 MSTORE SWAP1 SWAP2 MSTORE DUP2 KECCAK256 DUP1 SLOAD CALLVALUE SWAP3 SWAP1 PUSH2 0x4EA SWAP1 DUP5 SWAP1 PUSH2 0x68B JUMP JUMPDEST SWAP1 SWAP2 SSTORE POP POP PUSH1 0x2 SLOAD PUSH1 0x0 SWAP1 DUP2 MSTORE PUSH1 0x4 PUSH1 0x20 MSTORE PUSH1 0x40 DUP2 KECCAK256 DUP1 SLOAD SWAP2 PUSH2 0x50C DUP4 PUSH2 0x6CA JUMP JUMPDEST SWAP1 SWAP2 SSTORE POP POP PUSH1 0x2 SLOAD PUSH1 0x0 SWAP1 DUP2 MSTORE PUSH1 0x5 PUSH1 0x20 MSTORE PUSH1 0x40 DUP2 KECCAK256 DUP1 SLOAD CALLVALUE SWAP3 SWAP1 PUSH2 0x431 SWAP1 DUP5 SWAP1 PUSH2 0x5FE JUMP JUMPDEST PUSH1 0x0 DUP1 DUP3 SLT ISZERO PUSH2 0x54E JUMPI PUSH2 0x548 DUP3 PUSH1 0x0 NOT PUSH2 0x6E8 JUMP JUMPDEST SWAP3 SWAP2 POP POP JUMP JUMPDEST POP SWAP1 JUMP JUMPDEST PUSH1 0x0 PUSH1 0x20 DUP3 DUP5 SUB SLT ISZERO PUSH2 0x564 JUMPI PUSH1 0x0 DUP1 REVERT JUMPDEST POP CALLDATALOAD SWAP2 SWAP1 POP JUMP JUMPDEST PUSH1 0x0 DUP1 PUSH1 0x40 DUP4 DUP6 SUB SLT ISZERO PUSH2 0x57E JUMPI PUSH1 0x0 DUP1 REVERT JUMPDEST DUP3 CALLDATALOAD SWAP2 POP PUSH1 0x20 DUP4 ADD CALLDATALOAD PUSH1 0x1 PUSH1 0x1 PUSH1 0xA0 SHL SUB DUP2 AND DUP2 EQ PUSH2 0x59C JUMPI PUSH1 0x0 DUP1 REVERT JUMPDEST DUP1 SWAP2 POP POP SWAP3 POP SWAP3 SWAP1 POP JUMP JUMPDEST PUSH4 0x4E487B71 PUSH1 0xE0 SHL PUSH1 0x0 MSTORE PUSH1 0x11 PUSH1 0x4 MSTORE PUSH1 0x24 PUSH1 0x0 REVERT JUMPDEST PUSH1 0x0 DUP2 PUSH1 0x0 NOT DIV DUP4 GT DUP3 ISZERO ISZERO AND ISZERO PUSH2 0x5D7 JUMPI PUSH2 0x5D7 PUSH2 0x5A7 JUMP JUMPDEST POP MUL SWAP1 JUMP JUMPDEST PUSH1 0x0 DUP3 PUSH2 0x5F9 JUMPI PUSH4 0x4E487B71 PUSH1 0xE0 SHL PUSH1 0x0 MSTORE PUSH1 0x12 PUSH1 0x4 MSTORE PUSH1 0x24 PUSH1 0x0 REVERT JUMPDEST POP DIV SWAP1 JUMP JUMPDEST PUSH1 0x0 DUP3 NOT DUP3 GT ISZERO PUSH2 0x611 JUMPI PUSH2 0x611 PUSH2 0x5A7 JUMP JUMPDEST POP ADD SWAP1 JUMP JUMPDEST PUSH1 0x0 DUP1 DUP3 SLT DUP1 ISZERO PUSH1 0x1 PUSH1 0x1 PUSH1 0xFF SHL SUB DUP5 SWAP1 SUB DUP6 SGT AND ISZERO PUSH2 0x638 JUMPI PUSH2 0x638 PUSH2 0x5A7 JUMP JUMPDEST PUSH1 0x1 PUSH1 0xFF SHL DUP4 SWAP1 SUB DUP5 SLT DUP2 AND ISZERO PUSH2 0x651 JUMPI PUSH2 0x651 PUSH2 0x5A7 JUMP JUMPDEST POP POP ADD SWAP1 JUMP JUMPDEST PUSH1 0x0 PUSH1 0x1 PUSH1 0x1 PUSH1 0xFF SHL SUB DUP3 EQ ISZERO PUSH2 0x670 JUMPI PUSH2 0x670 PUSH2 0x5A7 JUMP JUMPDEST POP PUSH1 0x1 ADD SWAP1 JUMP JUMPDEST PUSH1 0x0 PUSH1 0x0 NOT DUP3 EQ ISZERO PUSH2 0x670 JUMPI PUSH2 0x670 PUSH2 0x5A7 JUMP JUMPDEST PUSH1 0x0 DUP1 DUP4 SLT DUP1 ISZERO PUSH1 0x1 PUSH1 0xFF SHL DUP6 ADD DUP5 SLT AND ISZERO PUSH2 0x6A9 JUMPI PUSH2 0x6A9 PUSH2 0x5A7 JUMP JUMPDEST PUSH1 0x1 PUSH1 0x1 PUSH1 0xFF SHL SUB DUP5 ADD DUP4 SGT DUP2 AND ISZERO PUSH2 0x6C4 JUMPI PUSH2 0x6C4 PUSH2 0x5A7 JUMP JUMPDEST POP POP SUB SWAP1 JUMP JUMPDEST PUSH1 0x0 PUSH1 0x1 PUSH1 0xFF SHL DUP3 EQ ISZERO PUSH2 0x6E0 JUMPI PUSH2 0x6E0 PUSH2 0x5A7 JUMP JUMPDEST POP PUSH1 0x0 NOT ADD SWAP1 JUMP JUMPDEST PUSH1 0x0 PUSH1 0x1 PUSH1 0x1 PUSH1 0xFF SHL SUB DUP2 DUP5 SGT DUP3 DUP5 SGT DUP1 DUP3 AND DUP7 DUP5 DIV DUP7 GT AND ISZERO PUSH2 0x70E JUMPI PUSH2 0x70E PUSH2 0x5A7 JUMP JUMPDEST PUSH1 0x1 PUSH1 0xFF SHL PUSH1 0x0 DUP8 SLT DUP3 DUP2 AND DUP8 DUP4 SDIV DUP10 SLT AND ISZERO PUSH2 0x72D JUMPI PUSH2 0x72D PUSH2 0x5A7 JUMP JUMPDEST PUSH1 0x0 DUP8 SLT SWAP3 POP DUP8 DUP3 SDIV DUP8 SLT DUP5 DUP5 AND AND ISZERO PUSH2 0x749 JUMPI PUSH2 0x749 PUSH2 0x5A7 JUMP JUMPDEST DUP8 DUP6 SDIV DUP8 SLT DUP2 DUP5 AND AND ISZERO PUSH2 0x75F JUMPI PUSH2 0x75F PUSH2 0x5A7 JUMP JUMPDEST POP POP POP SWAP3 SWAP1 SWAP4 MUL SWAP4 SWAP3 POP POP POP JUMP INVALID LOG2 PUSH5 0x6970667358 0x22 SLT KECCAK256 SLOAD CALLER TIMESTAMP MSTORE 0xDE PUSH2 0x8D9B SWAP11 0x4D 0xC1 CALLDATACOPY SWAP10 0xAC 0x4B 0xBC GASLIMIT 0x29 PUSH24 0x7AD9AFCC823C5D7271EABC666F64736F6C63430008090033 ",
  "sha1": "5fd70b4950f25ece1151af08dfae2b03419cc201",
  "source": "// SPDX-License-Identifier: GPL-3.0\npragma solidity ^0.8.0;\n\ncontract TugofWar {\n    uint256 public playTime;\n    address internal admin;\n    uint256 public version;\n    \n    mapping( uint256 => mapping( address => int256 )) public yourPosition;\n    mapping( uint256 => int256 ) public score;\n    mapping( uint256 => uint256 ) public left;\n    mapping( uint256 => uint256 ) public right;\n    \n    modifier payTheFees() { \n        require (msg.value == 1 * 10 ** 18);\n        _; \n    }\n    \n    constructor(){\n        version=0;\n        playTime = 30 days;\n        admin=msg.sender;\n      }\n    \n    function pullRight () external  payable payTheFees {\n        yourPosition[version][msg.sender]+=int256(msg.value);\n        score[version]++;\n        right[version]+=msg.value;\n      }\n    \n    function pullLeft () external payable payTheFees {\n        yourPosition[version][msg.sender]-=int256(msg.value);\n        score[version]--;\n        left[version]+=msg.value;\n      }\n      \n    function withdraw (uint256 _version) external returns(bool){\n        if (score[_version]>0){\n        uint256 amount = abs(yourPosition[_version][msg.sender])+(left[_version]*abs(yourPosition[_version][msg.sender])/right[_version]);\n        if (amount > 0) {\n            yourPosition[_version][msg.sender] = 0;\n            if (!payable(msg.sender).send(amount)) {\n                yourPosition[_version][msg.sender] = int256(amount);\n                return false;\n            }\n        }\n        return true;\n            \n        }\n        else if(score[_version]<0){\n        uint256 amount = abs(yourPosition[_version][msg.sender])+(right[_version]*abs(yourPosition[_version][msg.sender])/left[_version]);\n        if (amount > 0) {\n            yourPosition[_version][msg.sender] = 0;\n            if (!payable(msg.sender).send(amount)) {\n                yourPosition[_version][msg.sender] = int256(amount);\n                return false;\n            }\n        }\n        return true;\n            \n        }\n        else{\n        uint256 amount = abs(yourPosition[_version][msg.sender]);\n        if (amount > 0) {\n            yourPosition[_version][msg.sender] = 0;\n            if (!payable(msg.sender).send(amount)) {\n                yourPosition[_version][msg.sender] = int256(amount);\n                return false;\n            }\n        }\n        return true;\n            \n        }\n        \n      }\n      \n    function reset() external {\n        require(msg.sender==admin);\n        version++;\n    }\n    \n    function winning(uint256 _version) public view returns(int256) {\n        if (score[_version]>0){\n            return 1;\n        }\n        else if(score[_version]<0){\n            return -1;\n        }\n        else{\n            return 0;\n        }\n    }\n     \n    function checkContractBal() external view returns(uint256) {\n        return address(this).balance;\n    }\n     \n    function abs (int256 _integer256) private pure returns (uint256) {\n        if(_integer256<0){\n            return uint256(_integer256*(-1));\n        }\n        else{\n            return uint256(_integer256);\n        }\n    }\n}\n",
  "sourcePath": "contracts/TugofWar.sol",
  "type": "contract"
}